:02000000812B52
:0E0006008312031348088A004708820008008E
:10001400831203131408F100971C122817121716E1
:060024007108F000080065
:0E002A000030831203138C1A0130F00008001E
:10003800831203139618222800001C28831621080F
:0600480083129500080080
:10004E0083120313EF018316A00183126D080319A7
:10005E0072286D08FF3A03193528ED031520700834
:10006E00003A031D3B2835280A207008EE006F0861
:10007E006B07840070088000EF0A83162008831235
:10008E006C07840000086E06031D50288316A00A14
:10009E005B288316A00183126C08840000086E068C
:1000AE00031D5B288316A00A8316200883126C0793
:1000BE0084000008003A031D71288316200883125D
:1000CE006F02F000F101031CF10370086B0784004E
:0E00DE00800175282C286B0884008001080022
:1000EC00831603139C139A0183126C0883169B00CE
:1000FC0083126B08831698001C14000000001A0869
:04010C00F0000800F7
:10011000831203136B08F2007208F000F20A7008F1
:1001200084000008031995288C286B087202F000DF
:0C0130000130F002F101031CF103080093
:10013C0083120313ED016B0884000008EC006C08BB
:10014C00003A0319B4286C088316A1001C20ED0A90
:0E015C006D086B0784000008EC00A528080061
:10016A00831603139C131C1583126C0883169A00BA
:10017A0083126B088316970083126E0883169B00FE
:10018A0083126D08831698008B1355309D00AA3090
:0C019A009D009C14000000008B17080062
:1001A60083120313ED01EE016E086B07F0006C0875
:1001B6000318013EF1007008C7007108C80003204B
:1001C6008A110A12F1007108003A0319EC28EE0AA6
:1001D600D728ED016E086D02031804296D086B0718
:1001E600F0006C080318013EF1007008C7007108A2
:1001F600C80003208A110A128316A1001C20ED0AEA
:04020600ED280800D7
:10020A00831203136D08F000ED03700803192D29FA
:10021A006B0884000008003A03191E296C08840040
:10022A000008F1006B08840000087106031D1E29EE
:10023A002A296B0884000008F0006C088400000872
:10024A00F002F101031CF1032F29EB0AEC0A05293C
:06025A00F001F1010800B3
:1002600083120313D301D401D501D601D701D801DC
:10027000D901DA01DB01DC01DD01DE01DF01E00192
:10028000E101E201E301E401E501E601E701E80142
:10029000E9019A30EB000530EC00D320EB01530864
:1002A000183EEC0076207008FF3A0319712983127A
:1002B0005308563EEA00EB015308183EEC00762046
:1002C00083126A088400700880000D30FC00FB3047
:1002D000FD00FD0B6929FC0B692900000000D30A11
:1002E0004E2983125308563E840080015630EB009D
:1002F0009E200D308316A1001C201030EB0005302D
:10030000EC00D320D30155080D3A03199B29851C15
:100310009B291520700803199A290A207008D50016
:1003200070080D3A03199A295308603E8400550855
:100330008000D30A83298230FC00DD30FD00FD0BF4
:100340009F29FC0B9F29000000004430EB00603027
:10035000EC000330ED00052170087104031D112A23
:100360005830EB000530EC00D3206030EB0020303B
:10037000EC000E30ED002720D3016030EB00882028
:100380008030F200803071067202031DC9297008A6
:1003900053020318E329EB015308603E8400000870
:1003A000EC00ED015308183EEE00B5200D30FC00C6
:1003B000FB30FD00FD0BDA29FC0BDA290000000000
:1003C0008312D30ABD295308D4000A305307F10021
:1003D000F2010318F20A8030F000803072067002D9
:1003E000031DF4297108540203180B2AEB01FF3096
:1003F000EC00ED015408183EEE00B5200D30FC0075
:10040000FB30FD00FD0B022AFC0B022A000000005D
:100410008312D40AE5296F30EB000530EC00D320BD
:0E042000162AC930EB000530EC00D32008008E
:10042E0083120313D301D401D501D601D701D8010C
:10043E00D901DA01DB01DC01DD01DE014130EB0027
:10044E000530EC00D3205D080D3A0319422A851CB5
:10045E00422A152070080319412A0A207008DD006F
:10046E0070080D3A0319412A5E08533E84005D0858
:10047E008000DE0A2A2A3130EB005330EC000530C2
:10048E00ED000521700871040319592A3630EB006E
:10049E005330EC000A30ED00052170087104031989
:1004AE00592A612A2930EB000530EC00D3200130A7
:1004BE00F000672ADC30EB000430EC00D320F001B2
:0204CE00080024
:1004D00083120313D301D401D501D601D701D8016A
:1004E000D9018530EB000530EC00D32054080D3ADB
:1004F00003198E2A851C8E2A1520700803198D2A4F
:100500000A207008D40070080D3A03198D2A530888
:10051000553E840054088000D30A762A5308043AD2
:10052000031DD02AD301043053020318AF2AEB0174
:100530005308553E84000008EC00ED015308103EBE
:10054000EE00B5200D30FC00FB30FD00FD0BA62AAF
:10055000FC0BA62A000000008312D30A932AC130A4
:10056000EB000430EC00D320F630EB000430EC005C
:10057000D320D301043053020318C72A5308553E31
:10058000840000088316A1001C20D30ABA2A0D306B
:100590008316A1001C200A308316A1001C20D52A36
:1005A0006B30EB000430EC00D320D3010430530255
:1005B0000318F32A5308313EDA00EB015308103ECA
:1005C000EC00762083125A088400700880000D30F9
:1005D000FC00FB30FD00FD0BEB2AFC0BEB2A0000BE
:1005E0000000D30AD62A5308313E84008001080057
:1005F00083120313D301EB010830EC00762070085E
:10060000013A0319422B8312D30104305302031819
:100610001F2BEB015308313EEC00ED015308103E57
:10062000EE00B5200D30FC00FB30FD00FD0B162B5D
:10063000FC0B162B000000008312D30A052BEB01E4
:100640000130EC00ED010830EE00B5200D30FC006B
:10065000FB30FD00FD0B2A2BFC0B2A2B00000000B9
:100660008312EB013030EC00ED011830EE00B520C4
:100670000D30FC00FB30FD00FD0B3C2BFC0B3C2B3C
:10068000000000008312D301043053020318612BD1
:100690005308313ED400EB015308103EEC007620A5
:1006A000831254088400700880000D30FC00FB3079
:1006B000FD00FD0B592BFC0B592B00000000D30A49
:0C06C000442B5308313E840080010800E8
:1006CC0003208A110A128000840AC70A0319C80A77
:0806DC00F003031D662B08006A
:1006E4008312031396169030970083168716071605
:0E06F40083128C1E802B1408F0007A2B080055
:10070200D0258316031305108312051083160511D5
:1007120083120511831685149101FF30831299000B
:100722001930930016157223F8220330FB008A3029
:10073200FC005530FD00FD0B9C2BFC0B9C2BFB0B96
:100742009C2B00000000C901CA01CB01CC01CD01E4
:10075200CE01CF01D001D101D201851C1D2C05157E
:100762000630FB001330FC00AD30FD00FD0BB72B53
:10077200FC0BB72BFB0BB72B0000000017227008F5
:1007820003191D2C0514BA30EB000530EC00D32000
:100792001A30FB005E30FC006E30FD00FD0BCF2BEB
:1007A200FC0BCF2BFB0BCF2B000005104B30EB00CB
:1007B2000430EC00D320A630EB000430EC00D32050
:1007C2008930EB000430EC00D32051080D3A0319B4
:1007D200FE2B851CFE2B152070080319FD2B0A2009
:1007E2007008D10070080D3A0319FD2B5208493EDA
:1007F200840051088000D20AE62B2230EB004930F7
:10080200EC000A30ED00052170087104031D0B2C69
:1008120030211D2C2930EB004930EC000A30ED006C
:10082200052170087104031D182C68221D2CAB30A1
:0C083200EB000530EC00D320A42B1E2CA2
:100BA00020308400273083120313F0002430C70064
:080BB0000430C80066230800B0
:040848000D34003437
:0E084C00643469346E34653472346F340034B1
:10085A00633461346D34623469346134723400341F
:0A086A000034003400340034003480
:1008740072346F346F3474343A344A34313441341A
:0C088400393452343934413439340034F2
:06089000733469340034EA
:1008960049346E34673472346534733465342034C5
:1008A6006F347034633469346F346E342E342034CC
:1008B60078342034703461347234613420347334C3
:1008C60061346C34693472343A340D340A34003489
:1008D60043346F346E347434723461347334653433
:1008E6006E346934613420344E344F3420346134EC
:1008F60063347434753461346C3469347A346134F5
:0C090600643461342E340D340A340034A3
:100912002734633461346D3462346934613472343F
:10092200273420343A342034433461346D34623411
:10093200693461347234203463346C346134763413
:0A09420065342E340D340A340034FD
:10094C002734643469346E34653472346F3427342C
:10095C00203420343A342034563465347234203404
:10096C00643469346E34653472346F342E3420340C
:06097C000D340A340034C2
:1009820043346F346E347434723461347334653486
:100992006E346934613420346134633474347534B0
:1009A20061346C3469347A346134643461342E34A1
:0609B2000D340A3400348C
:1009B80043346F346E347434723461347334653450
:1009C8006E3469346134203469346E3463346F347E
:1009D8007234723465346334743461342E340D34B3
:0409E8000A34003499
:1009EC005334753420346E34753465347634613454
:1009FC00203463346F346E34743472346134733431
:100A0C0065346E34693461342034653473343A346B
:040A1C00203400344E
:100A20004434653473346534613420346D346F3448
:100A30006434693466346934633461347234203424
:100A40006D346F346E3474346F343F340D340A3483
:020A5000003470
:100A520043346F346E3474347234613473346534B5
:100A62006E3469346134203463346F3472347234D6
:100A720065346334743461342E340D340A340034F2
:100A820049346E34673472346534733465342034D7
:100A920063346F346E347434723461347334653455
:0E0AA2006E34693461343A340D340A34003451
:100AB00049346E34673472346534733465342034A9
:100AC0006E347534653476346F3420346D346F345D
:0E0AD0006E3474346F343A340D340A3400340A
:100ADE00443469346E34653472346F342034613486
:100AEE0063347434753461346C3469347A346134FB
:0C0AFE0064346F342E340D340A3400349C
:100B0A004E347534653476346134203463346F344A
:100B1A006E34743472346134733465346E346934C7
:0A0B2A0061343A340D340A3400340B
:100B3400443469346E34653472346F34203461342F
:100B440063347434753461346C343A34203424346A
:020B540000346B
:100B5600533461346C34693465346E3464346F34C0
:0E0B66002E342E342E340D340D340A34003467
:100B7400413462347234693465346E3464346F34AD
:0E0B84002E342E342E340D340D340A34003449
:0C0B92004F346B342E340D340A34003420
:02400E00F20FAF
:00000001FF
